{
  "_format": "hh-sol-artifact-1",
  "contractName": "CertificateRegistry",
  "sourceName": "contracts/Certificate.sol",
  "abi": [
    {
      "anonymous": false,
      "inputs": [
        {
          "indexed": false,
          "internalType": "uint256",
          "name": "certId",
          "type": "uint256"
        },
        {
          "indexed": false,
          "internalType": "string",
          "name": "studentName",
          "type": "string"
        },
        {
          "indexed": false,
          "internalType": "string",
          "name": "eventId",
          "type": "string"
        },
        {
          "indexed": false,
          "internalType": "string",
          "name": "ipfsHash",
          "type": "string"
        },
        {
          "indexed": false,
          "internalType": "address",
          "name": "issuedTo",
          "type": "address"
        }
      ],
      "name": "CertificateIssued",
      "type": "event"
    },
    {
      "inputs": [
        {
          "internalType": "uint256",
          "name": "",
          "type": "uint256"
        }
      ],
      "name": "certificates",
      "outputs": [
        {
          "internalType": "uint256",
          "name": "certId",
          "type": "uint256"
        },
        {
          "internalType": "string",
          "name": "studentName",
          "type": "string"
        },
        {
          "internalType": "string",
          "name": "eventId",
          "type": "string"
        },
        {
          "internalType": "string",
          "name": "ipfsHash",
          "type": "string"
        },
        {
          "internalType": "address",
          "name": "issuedTo",
          "type": "address"
        },
        {
          "internalType": "uint256",
          "name": "issuedAt",
          "type": "uint256"
        }
      ],
      "stateMutability": "view",
      "type": "function"
    },
    {
      "inputs": [
        {
          "internalType": "string",
          "name": "_studentName",
          "type": "string"
        },
        {
          "internalType": "string",
          "name": "_eventId",
          "type": "string"
        },
        {
          "internalType": "string",
          "name": "_ipfsHash",
          "type": "string"
        },
        {
          "internalType": "address",
          "name": "_issuedTo",
          "type": "address"
        }
      ],
      "name": "issueCertificate",
      "outputs": [
        {
          "internalType": "uint256",
          "name": "",
          "type": "uint256"
        }
      ],
      "stateMutability": "nonpayable",
      "type": "function"
    },
    {
      "inputs": [],
      "name": "nextCertId",
      "outputs": [
        {
          "internalType": "uint256",
          "name": "",
          "type": "uint256"
        }
      ],
      "stateMutability": "view",
      "type": "function"
    },
    {
      "inputs": [
        {
          "internalType": "uint256",
          "name": "_certId",
          "type": "uint256"
        }
      ],
      "name": "verifyCertificate",
      "outputs": [
        {
          "components": [
            {
              "internalType": "uint256",
              "name": "certId",
              "type": "uint256"
            },
            {
              "internalType": "string",
              "name": "studentName",
              "type": "string"
            },
            {
              "internalType": "string",
              "name": "eventId",
              "type": "string"
            },
            {
              "internalType": "string",
              "name": "ipfsHash",
              "type": "string"
            },
            {
              "internalType": "address",
              "name": "issuedTo",
              "type": "address"
            },
            {
              "internalType": "uint256",
              "name": "issuedAt",
              "type": "uint256"
            }
          ],
          "internalType": "struct CertificateRegistry.Certificate",
          "name": "",
          "type": "tuple"
        }
      ],
      "stateMutability": "view",
      "type": "function"
    }
  ],
  "bytecode": "0x608060405234801561001057600080fd5b50610a88806100206000396000f3fe608060405234801561001057600080fd5b506004361061004c5760003560e01c80631692a942146100515780632a8e6a8e1461007a578063663b3e2214610091578063b898c86f146100b6575b600080fd5b61006461005f3660046105f6565b6100c9565b6040516100719190610655565b60405180910390f35b61008360015481565b604051908152602001610071565b6100a461009f3660046105f6565b610306565b604051610071969594939291906106e0565b6100836100c43660046107e1565b6104dd565b61010b6040518060c001604052806000815260200160608152602001606081526020016060815260200160006001600160a01b03168152602001600081525090565b60008281526020818152604091829020825160c0810190935280548352600181018054919284019161013c90610888565b80601f016020809104026020016040519081016040528092919081815260200182805461016890610888565b80156101b55780601f1061018a576101008083540402835291602001916101b5565b820191906000526020600020905b81548152906001019060200180831161019857829003601f168201915b505050505081526020016002820180546101ce90610888565b80601f01602080910402602001604051908101604052809291908181526020018280546101fa90610888565b80156102475780601f1061021c57610100808354040283529160200191610247565b820191906000526020600020905b81548152906001019060200180831161022a57829003601f168201915b5050505050815260200160038201805461026090610888565b80601f016020809104026020016040519081016040528092919081815260200182805461028c90610888565b80156102d95780601f106102ae576101008083540402835291602001916102d9565b820191906000526020600020905b8154815290600101906020018083116102bc57829003601f168201915b505050918352505060048201546001600160a01b0316602082015260059091015460409091015292915050565b6000602081905290815260409020805460018201805491929161032890610888565b80601f016020809104026020016040519081016040528092919081815260200182805461035490610888565b80156103a15780601f10610376576101008083540402835291602001916103a1565b820191906000526020600020905b81548152906001019060200180831161038457829003601f168201915b5050505050908060020180546103b690610888565b80601f01602080910402602001604051908101604052809291908181526020018280546103e290610888565b801561042f5780601f106104045761010080835404028352916020019161042f565b820191906000526020600020905b81548152906001019060200180831161041257829003601f168201915b50505050509080600301805461044490610888565b80601f016020809104026020016040519081016040528092919081815260200182805461047090610888565b80156104bd5780601f10610492576101008083540402835291602001916104bd565b820191906000526020600020905b8154815290600101906020018083116104a057829003601f168201915b50505050600483015460059093015491926001600160a01b031691905086565b600180546040805160c0810182528281526020808201898152828401899052606083018890526001600160a01b03871660808401524260a0840152600085815291829052928120825181559251909491929182019061053c9082610911565b50604082015160028201906105519082610911565b50606082015160038201906105669082610911565b5060808201516004820180546001600160a01b0319166001600160a01b0390921691909117905560a090910151600590910155600180549060006105a9836109d1565b91905055507f1de74ad78994adcce83ed5cecc8c14ced778f7b14e511a8bf916072c8bd3221b81878787876040516105e59594939291906109f8565b60405180910390a195945050505050565b60006020828403121561060857600080fd5b5035919050565b6000815180845260005b8181101561063557602081850181015186830182015201610619565b506000602082860101526020601f19601f83011685010191505092915050565b60208152815160208201526000602083015160c0604084015261067b60e084018261060f565b90506040840151601f1980858403016060860152610699838361060f565b92506060860151915080858403016080860152506106b7828261060f565b91505060018060a01b0360808501511660a084015260a084015160c08401528091505092915050565b86815260c0602082015260006106f960c083018861060f565b828103604084015261070b818861060f565b9050828103606084015261071f818761060f565b6001600160a01b03959095166080840152505060a00152949350505050565b634e487b7160e01b600052604160045260246000fd5b600082601f83011261076557600080fd5b813567ffffffffffffffff808211156107805761078061073e565b604051601f8301601f19908116603f011681019082821181831017156107a8576107a861073e565b816040528381528660208588010111156107c157600080fd5b836020870160208301376000602085830101528094505050505092915050565b600080600080608085870312156107f757600080fd5b843567ffffffffffffffff8082111561080f57600080fd5b61081b88838901610754565b9550602087013591508082111561083157600080fd5b61083d88838901610754565b9450604087013591508082111561085357600080fd5b5061086087828801610754565b92505060608501356001600160a01b038116811461087d57600080fd5b939692955090935050565b600181811c9082168061089c57607f821691505b6020821081036108bc57634e487b7160e01b600052602260045260246000fd5b50919050565b601f82111561090c57600081815260208120601f850160051c810160208610156108e95750805b601f850160051c820191505b81811015610908578281556001016108f5565b5050505b505050565b815167ffffffffffffffff81111561092b5761092b61073e565b61093f816109398454610888565b846108c2565b602080601f831160018114610974576000841561095c5750858301515b600019600386901b1c1916600185901b178555610908565b600085815260208120601f198616915b828110156109a357888601518255948401946001909101908401610984565b50858210156109c15787850151600019600388901b60f8161c191681555b5050505050600190811b01905550565b6000600182016109f157634e487b7160e01b600052601160045260246000fd5b5060010190565b85815260a060208201526000610a1160a083018761060f565b8281036040840152610a23818761060f565b90508281036060840152610a37818661060f565b91505060018060a01b0383166080830152969550505050505056fea2646970667358221220cba7ee56e9c9507e404ea36c74afb891ed45a2e9946ae108c965354b6783e13364736f6c63430008140033",
  "linkReferences": {},
  "deployedLinkReferences": {}
}